:020000040800F2
:10000000C80C00203D020008831600088516000871
:10001000891600088D1600089116000800000000DF
:10002000000000000000000000000000951600081D
:100030009716000800000000991600089B1600089B
:10004000570200085702000857020008570200082C
:10005000570200085702000857020008570200081C
:10006000570200085702000857020008570200080C
:1000700057020008570200085702000857020008FC
:1000800057020008570200085702000857020008EC
:1000900057020008570200085702000857020008DC
:1000A00057020008570200085702000857020008CC
:1000B00057020008570200085702000857020008BC
:1000C00057020008570200085702000857020008AC
:1000D000570200085702000857020008570200089C
:1000E00057020008570200085702000800000000ED
:1000F0000000000000000000000000000000000000
:10010000000000000000000057020008570200082D
:10011000570200085702000857020008570200085B
:10012000570200085702000857020008570200084B
:10013000570200085702000857020008570200083B
:10014000570200085702000857020008570200082B
:1001500000F002F800F063F80AA090E8000C824476
:100160008344AAF10107DA4501D100F058F8AFF253
:10017000090EBAE80F0013F0010F18BFFB1A43F085
:1001800001031847E43500000436000010F8013B75
:100190000A4413F0030408BF10F8014B1D1108BFF7
:1001A00010F8015B641E05D010F8016B641E01F8A5
:1001B000016BF9D1002D15D010F8014B03F00C03A1
:1001C0000C2BA1EB04040ABF10F8013BA4EB831431
:1001D000A4EB032405F1010314F8016B5B1E01F885
:1001E000016BF9D5914238BF10F8013BD1D370476C
:1001F0000023002400250026103A28BF78C1FBD830
:10020000520728BF30C148BF0B607047752902F004
:100210008580002070471FB51FBD10B510BD02F0CE
:1002200069F91146FFF7F7FF01F00EFC02F087F9BC
:1002300003B4FFF7F2FF03BC02F088F909488047D6
:1002400009480047FEE7FEE7FEE7FEE7FEE7FEE7B8
:10025000FEE7FEE7FEE7FEE704480549054A064BD0
:1002600070470000A917000851010008C8060020C7
:10027000C80C0020C8080020C808002010B504469B
:10028000FB48844209D10121880300F03FFC002192
:100290004FF4804000F03AFC32E0F648844209D145
:1002A0000121480400F03FFC00214FF4003000F031
:1002B0003AFC25E0F048844209D10121880400F08D
:1002C00032FC00214FF4802000F02DFC18E0EB48B8
:1002D000844209D10121C80400F025FC00214FF41B
:1002E000002000F020FC0BE0E548844208D1012109
:1002F000080500F018FC00214FF4801000F013FCFA
:1003000010BD2DE9F04786B005460E460024A246F2
:1003100000BFA1460027B08900B100BF2F462C8A3C
:100320004CF6FF700440F08804432C82AC894EF6F2
:10033000F3100440B08831890843718908430443AD
:10034000AC81AC8A4FF6FF400440B0890443AC82D4
:1003500001A800F0CFFAC648874202D1DDF810A00C
:1003600001E0DDF80CA0A88910F4004F08D00AEBDA
:10037000CA0000EB0A1031684900B0FBF1F807E051
:100380000AEBCA0000EB0A1031688900B0FBF1F8F3
:100390006420B8FBF0F004012009642101FB1089FE
:1003A000A88910F4004F08D0322000EBC900B0FB40
:1003B000F1F000F00700044308E0322000EB0910E0
:1003C0006421B0FBF1F000F00F0004432C8106B073
:1003D000BDE8F0874FF41651016000218180C18093
:1003E00001810C21418100218181704710B50246B5
:1003F0000020108A4FF2FF0318400B884C882343DB
:100400008C882343CC8823431843108210BD0021DD
:10041000018041808180C180704721B1828942F48E
:100420000052828104E082894DF6FF731A40828176
:100430007047F0B503460024002600250020A1F5F2
:1004400010676A3F00D100BF1846C1F3421401F0A3
:100450001F06012707FA06F5012C01D10C3004E034
:10046000022C01D1103000E014301AB107682F437C
:10047000076002E00768AF430760F0BD1AB1838AE6
:100480000B43838202E0838A8B4383827047028A14
:100490004FF6F0731A400282028A0A4302827047C2
:1004A00082894FF2FF731A40828182890A438281D6
:1004B000704721B1828942F00202828104E0828980
:1004C0004FF6FD731A4082817047028A4FF6DF7340
:1004D0001A400282028A0A430282704721B1028ACC
:1004E00042F48042028204E0028A4BF6FF731A4013
:1004F00002827047C1F308028280704701468888F3
:10050000C0F308007047818941F001018181704783
:10051000028BD2B20283028B42EA0122028370472D
:10052000028B02F47F420283028B0A4302837047EC
:1005300021B1828A42F02002828204E0828A4FF650
:10054000DF731A408282704721B1828A42F0100222
:10055000828204E0828A4FF6EF731A4082827047EB
:1005600021B1828A42F00802828204E0828A4FF638
:10057000F7731A408282704721B1828942F40042A7
:10058000828103E08289C2F30E028281704721B129
:10059000828A42F40062828204E0828A4FF2FF7310
:1005A0001A4082827047828A4FF6FB731A40828219
:1005B000828A0A438282704721B1828A42F0020213
:1005C000828204E0828A4FF6FD731A40828270476D
:1005D00002460020B1F5007F00D100BF13880B4216
:1005E00001D0012000E00020704701F40072B2F554
:1005F000007F00D100BFCA430280704770B5024639
:100600000024002300250020A1F510666A3E00D1D9
:1006100000BFC1F3421501F01F03012606FA03F3E0
:10062000012D02D19689334006E0022D02D1168AAF
:10063000334001E0968A33400C12012606FA04F496
:100640001688344013B10CB1012000E0002070BDC9
:1006500010B500220023A1F510646A3C00D100BF50
:100660000A1201249440A3B2DC43048010BD0000B0
:10067000003801400044004000480040004C004069
:1006800000500040F948006840F00100F749086058
:1006900008464068F6490840F44948600846006842
:1006A000F4490840F14908600846006820F48020B9
:1006B00008600846406820F4FE004860084600686C
:1006C00020F0A05008604FF47F0088600020C862CE
:1006D0007047E649096821F48031E44A1160114607
:1006E000096821F480211160B0F5803F03D0B0F596
:1006F000802F0ED106E0DD49096841F48031DB4AE4
:10070000116007E0D949096841F4A021D74A116076
:1007100000E000BF00BF704710B501460022002373
:1007200000204A11012A02D1D04C236806E0022A97
:1007300002D1CE4C236A01E0CC4C636A01F01F0267
:10074000012494401C4201D0012000E0002010BD93
:1007500038B5002000900024002500BF3120FFF7AD
:10076000DBFF05460098401C00900098B0F5A06F94
:1007700001D0002DF2D03120FFF7CEFF08B10124C7
:1007800000E00024204638BD01460020B74A10682A
:1007900020F0F80040EAC10010607047B6490860D8
:1007A000704702460020B14B586820F4741042EAAA
:1007B00001031843AD4B58607047AF490866704756
:1007C00002460020A94BD86AAC4B184042EA01030C
:1007D0001843A64BD862704701460020A34AD06A4E
:1007E00020F0F0000843D0627047014600209F4A85
:1007F000D06A20F470600843D06270479E498866D2
:10080000704701460020994AD06A20F4704008439E
:10081000D062704798490867704701460020934AA4
:10082000506820F003000843506070478F484068CC
:1008300000F00C007047014600208C4A506820F000
:10084000F00008435060704701460020874A506816
:1008500020F4E06008435060704701460020834A5E
:10086000506820F4605040EAC1005060704729B1E0
:100870007E4A527A02437D4B5A7204E07B4A527A96
:1008800082437A4B5A7270477D490860704701462F
:100890000020764A506820F440400843506070477A
:1008A0007849086070477749091D08607047002142
:1008B000754A11706D4A82F82010012802D0042870
:1008C00008D103E00121704A117004E005216E4A4D
:1008D000117000E000BF00BF70476C4908607047AE
:1008E0006249096A0143614A1162704767494439A4
:1008F000086070472DE9F041002100220025002307
:100900000026002400278C46DFF86081D8F8048098
:1009100008F00C0121B1042907D0082959D109E0B8
:10092000DFF86C81C0F8008058E0DFF86881C0F81B
:10093000008053E0DFF83481D8F8048008F47012A6
:10094000DFF82881D8F8048008F48035920C0D2A4D
:1009500001D0921C00E0062235B9DFF83C8102FB91
:1009600008F8C0F8008033E0DFF80081D8F82C8068
:1009700008F48036DFF8F480D8F82C8008F00F08EF
:1009800008F1010446B9DFF80C81B8FBF4F808FB64
:1009900002F8C0F800801BE0DFF8D080D8F82C8087
:1009A000C8F3031808F10107DFF8C080D8F82C80DD
:1009B000C8F3032808F1020CDFF8D880B8FBF7F879
:1009C00008FB0CF8B8FBF4F808FB02F8C0F800804C
:1009D00004E0DFF8BC80C0F8008000BF00BFDFF893
:1009E0008C80D8F8048008F0F0010909DFF8AC80A9
:1009F00018F80130D0F8008028FA03F8C0F8048015
:100A0000DFF86880D8F8048008F4E061090ADFF8AC
:100A10008C8018F80130D0F8048028FA03F8C0F868
:100A20000880DFF84880D8F8048008F46051C90ACB
:100A3000DFF8688018F80130D0F8048028FA03F84D
:100A4000C0F80C80DFF82480D8F8048008F4404116
:100A5000890BDFF84C8018F80130D0F80C80B8FB17
:100A6000F3F8C0F81080BDE8F081000000100240EB
:100A70000000FFF0FFFFF6FE00004242F0FFFEFF25
:100A8000D8004242C4054242201002408004424243
:100A900000127A0040787D0100093D00000000202E
:100AA0001000002029B1354A52690243334B5A6184
:100AB00004E0324A52698243304B5A61704729B18F
:100AC0002E4A926902432D4B9A6104E02B4A9269A7
:100AD00082432A4B9A61704729B1284AD26902435E
:100AE000264BDA6104E0254AD2698243234BDA615E
:100AF000704729B1214A926A0243204B9A6204E06E
:100B00001E4A926A82431D4B9A62704729B11B4A62
:100B1000D2680243194BDA6004E0184AD268824373
:100B2000164BDA60704729B1144A12690243134B1D
:100B30001A6104E0114A12698243104B1A6170472E
:100B40000F49086070470F49C86470470B49C87166
:100B500070470A48406A40F0807008494862704710
:100B600001460020054A92680A4201D0012000E0B7
:100B70000020704701498872704700000010024051
:100B8000400442420000424210B50446CA48844232
:100B900008D101210420FFF7B9FF00210420FFF74D
:100BA000B5FF46E0C548844208D101210820FFF77F
:100BB000ADFF00210820FFF7A9FF3AE0C0488442BA
:100BC00008D101211020FFF7A1FF00211020FFF71D
:100BD0009DFF2EE0BB48844208D101212020FFF771
:100BE00095FF00212020FFF791FF22E0B6488442C4
:100BF00008D101214020FFF789FF00214020FFF7A5
:100C000085FF16E0B148844208D101218020FFF71A
:100C10007DFF00218020FFF779FF0AE0AC48844285
:100C200007D101218015FFF771FF0021A015FFF703
:100C30006DFF10BD10B501210846FFF767FF0021C9
:100C40000120FFF763FF10BD2DE9F04102460025AA
:100C50000026002000230024002791F803C00CF098
:100C60000F0591F803C01CF0100F03D091F802C0DB
:100C70004CEA050591F800C0BCF1000F31D01468B2
:100C800000202BE04FF0010C0CFA00F3B1F800C08B
:100C90000CEA03069E4220D183004FF00F0C0CFAA1
:100CA00003F7BC4305FA03FC4CEA040491F803C0C3
:100CB000BCF1280F06D14FF0010C0CFA00FCC2F871
:100CC00014C00AE091F803C0BCF1480F05D14FF001
:100CD000010C0CFA00FCC2F810C0401C0828D1D34B
:100CE0001460B1F800C0BCF1FF0F34DD546800207F
:100CF0002EE000F1080C4FF0010808FA0CF3B1F8EF
:100D000000C00CEA03069E4221D183004FF00F0C75
:100D10000CFA03F7BC4305FA03FC4CEA040491F80F
:100D200003C0BCF1280F05D100F1080C08FA0CF83B
:100D3000C2F8148091F803C0BCF1480F07D100F14C
:100D4000080C4FF0010808FA0CF8C2F81080401C9B
:100D50000828CED35460BDE8F0814FF6FF710180C2
:100D6000022181700421C1707047024600209368FF
:100D70000B4201D0012000E0002070470146886846
:100D800080B2704702460020D3680B4201D0012098
:100D900000E0002070470146C86880B270470161DA
:100DA0007047416170470AB1016100E041617047DD
:100DB000C16070474FF480320A4382618161826171
:100DC00082698269704702460020424B18684FF6DC
:100DD0008073184040EA021008433E4B1860704789
:100DE0003D49C8617047F0B50A4600230024002140
:100DF000002500F00046B6F1004F02D1354EF169F2
:100E000001E0344E7168C0F3034583B200F440162C
:100E1000B6F5401F08D121F070612E4E766826F09D
:100E200070662C4F7E6012E000F48016B6F5801FCD
:100E300006D1032606FA05F4A14341F0706106E0ED
:100E4000460D360103FA06F6B14341F0706122B156
:100E5000460D360103FA06F6314300F00046B6F1BE
:100E6000004F02D11B4EF16101E01A4E7160F0BDDE
:100E700030B500228B071C0F0F2303FA04F2154B29
:100E800008338C1053F824309343124C08348D10DF
:100E900044F8253023468C1053F824308C07240F57
:100EA00000FA04F423430B4C08348D1044F8253029
:100EB00030BD0A490860704700080140000C01403D
:100EC000001001400014014000180140001C0140C6
:100ED000002001400000014000002042DC002042D0
:100EE00010B50446CE48844208D101218014FFF792
:100EF0000DFE0021A014FFF709FE16E0C948844248
:100F000008D101210014FFF70EFE00212014FFF785
:100F10000AFE0AE0C448844207D10121C013FFF74A
:100F200002FE0021E013FFF7FEFD10BD10B5002208
:100F3000028802F441520B884C8823438C88234357
:100F4000CC8823430C8923434C8923438C89234336
:100F5000CC8923431A430280838B4FF2FF742340D2
:100F600083830B8A038210BD2DE9F04F85B00646BE
:100F70000C464FF0000A02274FF000084FF0010B1B
:100F80000025A946B08B4FF240010840B0830220F3
:100F90003084B6F81CA0A068022801D100BF59E037
:100FA000A08810B94FF0010B01E04FF0020B9D48F3
:100FB000864202D14FF4003501E04FF480259B4872
:100FC000C06A284219D09948C06AC0F30335052D7C
:100FD00003D90F2D01D2AD1C02E00F2D00D1142535
:100FE0009248C06AC0F3031000F101099048B0FBB9
:100FF000F9F068434FEA400904E06846FFF77AFCDD
:10100000DDF80090E088B0F5007F0AD14FEA1920A2
:1010100000EB80004000A168B0FBF1F0401D85B2FC
:101020000BE04FEA4B10B9FBF0F000EB8000400002
:10103000A168B0FBF1F0401D85B20A20B5FBF0F5C8
:1010400005F00108A5EB0800C0F34F074FF6FF704D
:1010500000EA0828022F01DBFF2F02DD02274FF0F4
:101060000008E08840EA080038433084A088A1895D
:101070000843618808432188084340F4006040EA3F
:101080000A0AA6F81CA005B0BDE8F08F0021018077
:1010900041808180C180018141818181C18107219D
:1010A000018270470021018041808180C18002213E
:1010B000816000218181704721B1028842F04002A5
:1010C000028004E002884FF6BF731A400280704726
:1010D00021B1828B42F48062828304E0828B4FF6DE
:1010E000FF331A408283704730B5002400230C116F
:1010F0000125A540ABB21AB185881D43858002E069
:1011000085889D43858030BD1AB183880B438380D9
:1011100002E083888B43838070478181704701465A
:1011200088897047A1F57E42FF3A04D0028842F4D4
:101130008072028004E002884FF6FF631A4002804A
:10114000704721B1828842F00402828004E08288E4
:101150004FF6FB731A408280704702884FF2FF738C
:101160001A40028002880A4302807047018841F4D5
:1011700080510180704721B1028842F40052028000
:1011800004E002884DF6FF731A4002807047024661
:101190000020012901D0108B00E0908A70470146A1
:1011A000088A7047B1F5804F04D1028842F480422A
:1011B000028004E002884BF6FF731A4002807047F9
:1011C0000246002013890B4201D0012000E00020DC
:1011D0007047CA4302817047F0B5024600200024E0
:1011E0000023002501F00F070126BE40B4B20B1109
:1011F00001269E40B3B2968806EA03051689264268
:1012000002D00DB1012000E00020F0BD10B5002299
:1012100001F00F040123A3409AB2D343038110BD10
:101220000030014000380040003C00400010024007
:1012300040787D0110B50446FA48844208D1012166
:101240004015FFF763FC00216015FFF75FFC17E016
:10125000F548844208D101210015FFF757FC002111
:101260002015FFF753FC0BE0F048844208D1012120
:10127000C803FFF74BFC00214FF40040FFF746FC8A
:1012800010BD30B50246002000235068E84C2040D5
:101290000D790C6844EA0524204350609068E54CC1
:1012A0002040D1E902542C434D7944EA45042043BF
:1012B0009060D06A20F470000C7C641EE4B223437A
:1012C00040EA0350D06230BD0021016001714171DC
:1012D0008160C16001210174704721B1826842F0D0
:1012E0000102826003E0826822F00102826070479E
:1012F00021B1826842F48072826003E0826822F445
:1013000080728260704710B50023CBB21AB1446876
:101310001C43446002E044689C43446010BD816803
:1013200041F0080181607047014600208A6812F090
:10133000080F01D0012000E000207047816841F0D3
:10134000040181607047014600208A6812F0040F92
:1013500001D0012000E00020704721B1826842F4F2
:10136000A002826003E0826822F4A00282607047DB
:10137000014600208A6812F4800F01D0012000E0AD
:101380000020704710B50A4600210023416821F46F
:101390006041531E41EA4331416010BD21B14268B2
:1013A00042F40062426003E0426822F4006242605C
:1013B0007047F0B504460D4600200021092D11DDCF
:1013C000E068A5F10A0606EB4607072606FA07F1CC
:1013D0008843A5F10A0606EB460603FA06F1084320
:1013E000E0600CE0206905EB4507072606FA07F1E7
:1013F000884305EB450603FA06F108432061072AF6
:101400000FDA606B561E06EB86071F2606FA07F1F9
:101410008843561E06EB860605FA06F1084360630C
:1014200022E00D2A0FDA206BD61F06EB86071F2657
:1014300006FA07F18843D61F06EB860605FA06F181
:101440000843206310E0E06AA2F10D0606EB860770
:101450001F2606FA07F18843A2F10D0606EB860661
:1014600005FA06F10843E062F0BD21B1826842F45A
:101470008012826003E0826822F4801282607047EA
:101480000146C86C80B2704766484C3000687047AF
:1014900021B1426842F48062426003E0426822F473
:1014A00080624260704721B1426842F480524260DB
:1014B00003E0426822F48052426070470A460021ED
:1014C000816821F4E04111438160704721B1826855
:1014D00042F40042826003E0826822F400428260AB
:1014E000704721B1826842F40212826003E0826890
:1014F00022F4021282607047014600208A6812F4CA
:10150000001F01D0012000E000207047F0B5044624
:101510001546002000220026092911DDE068A1F10E
:101520000A0707EB470C072707FA0CF29043A1F1D3
:101530000A0707EB470703FA07F21043E0600CE0E5
:10154000206901EB410C072707FA0CF2904301EBED
:10155000410703FA07F210432061A06BC0F3015664
:10156000EF1C06F1010CA7EB0C0707EB870C1F27FC
:1015700007FA0CF29043EF1C06F1010CA7EB0C07E5
:1015800007EB870701FA07F21043A063F0BD10B51F
:101590000A4600210023816B21F44011531E41EAC9
:1015A0000351816310BD08B5002300930090009B98
:1015B0000B440093009B1A6008BD08B5024600204A
:1015C0000090009201F12800009B184400900098C0
:1015D000006880B208BD0A4600214168164B1940D8
:1015E0001143416070474162826270470A460021A0
:1015F000416821F01F0111434160704740B1094922
:101600000831096841F40001064A0832116007E018
:1016100004490831096821F40001024A08321160C6
:10162000704700000024014000280140003C0140B8
:10163000FFFEF0FFFDF7F1FFFFFD3FFF0246002038
:1016400013680B4201D0012000E000207047CA431C
:101650000260704770B502460020002300240B1280
:101660005568CEB205EA060415681D4202D00CB1D9
:10167000012000E0002070BD00220A12D343036065
:101680007047704700BFFEE700BFFEE700BFFEE700
:1016900000BFFEE770477047704770470CB50020E9
:1016A000019000909148006840F480308F490860B4
:1016B00000BF8E48006800F4003000900198401C84
:1016C0000190009818B90198B0F5A06FF1D1874842
:1016D000006810F4003F02D00120009001E00020DB
:1016E0000090009801285AD18148006840F010000D
:1016F0007F4908600846006820F00300086008463B
:10170000006840F002000860784840687749486007
:101710000846406848600846406840F48060486079
:101720000846C06A734908407049C8620846C06AE2
:10173000714908436D49C8620846006840F08060FE
:10174000086000BF6948006810F0006FFAD0674871
:10175000406820F47C10654948600846406840F4C1
:10176000E81048600846006840F08070086000BFDC
:101770005E48006810F0007FFAD05C48406820F0B6
:1017800003005A4948600846406840F0020048603B
:1017900000BF5648406800F00C000828F9D10CBD85
:1017A00010B5FFF77BFF10BD10B55048006840F042
:1017B00001004E49086008464068504908404B49BE
:1017C0004860084600684E49084048490860084695
:1017D000006820F4802008600846406820F4FE007D
:1017E00048600846006820F0A05008604FF47F0071
:1017F00088600020C862FFF7D3FF4FF000604149C6
:10180000086010BDF0B50021002000230024002254
:1018100000250026354F7F6807F00C0121B104290F
:1018200008D008294BD10BE0374FDFF8E0C0CCF8E7
:1018300000704AE0364FDFF8D4C0CCF8007044E0C6
:101840002A4F7F6807F47010284F7F6807F48033B1
:10185000800C0D2801D0801C00E0062033B92D4FEC
:101860004743DFF8A8C0CCF8007027E01F4FFF6A9D
:1018700007F480341D4FFF6A07F00F077A1C44B944
:10188000234FB7FBF2F74743DFF880C0CCF8007076
:1018900014E0164FFF6AC7F303177D1C134FFF6A4E
:1018A000C7F30327BE1C1A4FB7FBF5F77743B7FB07
:1018B000F2F74743DFF854C0CCF8007005E0124F50
:1018C000DFF848C0CCF8007000BF00BF074F7F684A
:1018D000C7F30317DFF840C01CF807100B4F3F6831
:1018E000CF40DFF828C0CCF80070F0BD00100240F7
:1018F0000020024000F0FEFF440601000000FFF05F
:10190000FFFFF6FE08ED00E000127A001400002050
:1019100040787D0100093D00180000201FB501211D
:10192000C804FFF7D9F84FF4165000900020ADF826
:101930000400ADF80600ADF80800ADF80C000C206E
:10194000ADF80A0069464C48FEF7DBFC01214A4825
:10195000FEF763FD1FBD01B500BF0098411E009159
:101960000028FAD108BD10B50446204600F012FD4B
:101970004249087000204249087011E04048007850
:10198000215C3D48FEF7B6FD00BF80213A48FEF7D6
:101990001FFE0028F9D03A480078401C38490870EA
:1019A00037480078354909788842E7DB10BD10B523
:1019B0003448FEF79FFF34A0FFF7D5FF40A0FFF7A4
:1019C000D2FF47A0FFF7CFFF2E4850A1026854482E
:1019D00000F05CFC5248FFF7C6FF2A4851A142685C
:1019E0004F4800F053FC4E48FFF7BDFF25484068C4
:1019F000C20852A14A4800F049FC4948FFF7B3FF2A
:101A000010BD10B553A0FFF7AEFF5DA0FFF7ABFF11
:101A100068A0FFF7A8FF76A0FFF7A5FF10BD10B5DF
:101A200000BF20211448FEF7D3FD0028F9D012484A
:101A3000FEF764FD78490870084601780E48FEF705
:101A400059FD7548007810BD00F097F9044611E083
:101A5000012C0FD171A000F0CAFB77A000F0C7FBEA
:101A600001229620002100F08EFA61027948FFF7EA
:101A70007CF90446ECE70000004C00402A000020FE
:101A80002B000020500600200A0A0D202D2D2D2DA0
:101A90002D2D2D2D2D2D2D2D53797374656D2049F0
:101AA0006E666F726D6174696F6E2D2D2D2D2D2DEB
:101AB0002D2D2D2D2D2D2D2D2D2D0A0D000000004D
:101AC0000A0A0D205541525420436F6E66696775AE
:101AD0007261746564203A205945530A0D00000074
:101AE0000A0A0D2053544550504552204D4F544F33
:101AF000522050494E7320436F6E6669677572615C
:101B0000746564203A205945530A0D000A0A0D20D5
:101B10005359434C4B203A2025750A0D0000000014
:101B20001B0600200A0A0D2048434C4B20436C6FD3
:101B3000636B203A2025750A0D0000000A0A0D206B
:101B4000436F7274657820436C6F636B203A202575
:101B5000750A0D000A0A0D202D2D2D2D20546572B9
:101B60006D696E616C204D656E752053544D333236
:101B700046313037202D2D2D2D200A0D000000007C
:101B80000A0A0D20312E2D205072657373206E7558
:101B90006D626572732066726F6D203120746F20E4
:101BA0003420746F207374657073206D6F746F725E
:101BB0000A0D00000A0A0D20322E2D205072657386
:101BC00073205320746F20646973706C6179207482
:101BD000686520636C6F636B2073797374656D2027
:101BE000696E666F726D6174696F6E0A0D00000038
:101BF0000A0A0D20332E2D205072657373204D205C
:101C0000746F20646973706C617920746865204D0D
:101C1000656E75200A0A0D001C050020202020207A
:101C2000202020205449434B4554202020202020B0
:101C3000202020200000000020455320554E205435
:101C400049434B455420444520505255454241009C
:101C5000000000000018014001B500BF0098411EBF
:101C600000910028FAD108BD10B504462146FB4872
:101C7000FFF753FA10BD10B5002400BF04E00020A8
:101C8000FFF7F2FF601CC4B2182CF8DB4FF4807130
:101C9000F348FFF786F81E20FFF7DEFF4FF4807150
:101CA000EF48FFF77CF83220FFF7D6FF10BD00B5F4
:101CB00085B001210803FEF702FF4FF44040ADF864
:101CC00000004FF48270ADF802004FF40060ADF8F0
:101CD00004000220ADF806000020ADF808004FF423
:101CE0000070ADF80A000820ADF80C000020ADF837
:101CF0000E006946D948FFF719F90121D748FFF7C7
:101D0000DBF905B000BD00B585B04FF48040FEF7AB
:101D1000BEFD01214802FEF7D2FE002000908DF8A2
:101D200004008DF805004FF460200290002003901D
:101D300001208DF810006946CA48FFF7A2FA052372
:101D400001220A21C748FFF734FB0121C548FFF7EC
:101D5000C4FAC448FFF7E3FA00BFC248FFF7E4FA49
:101D60000028FAD1BF48FFF7E9FA00BFBD48FFF7E6
:101D7000EAFA0028FAD105B000BD08B501214020DB
:101D8000FEF79DFE4FF47D40ADF8000003208DF876
:101D9000020010208DF803006946B148FEF754FF99
:101DA0004FF48071AE48FEF7FAFF4FF47C41AC4827
:101DB000FEF7F7FF01212020FEF781FE4FF470604F
:101DC000ADF800006946A848FEF73EFF4FF4706189
:101DD000A548FEF7E6FF01211020FEF770FEC020A7
:101DE000ADF800006946A148FEF72EFFC0219F48CC
:101DF000FEF7D7FF01210820FEF761FE4FF40070C7
:101E0000ADF8000069469A48FEF71EFF4FF40071D6
:101E10009748FEF7C6FF4FF40070ADF800000420AD
:101E20008DF8030069468E48FEF70EFF0121102051
:101E3000FEF745FE0120ADF8000000208DF80300FC
:101E400003208DF8020069468848FEF7FDFEFFF783
:101E50005AFF01210846FEF732FE01210846FEF72F
:101E6000C2FF8448406840F00070824948602820E2
:101E7000ADF8000018208DF8030069467C48FEF795
:101E8000E3FEFFF714FFFFF7F6FE4FF4007174480E
:101E9000FEF76BFF08BD10B5044641F62C20FFF796
:101EA000DBFE052C6DD2DFE804F003182D4257004D
:101EB0004FF400716E48FEF774FF4FF480716A486A
:101EC000FEF76FFF4FF480616748FEF76AFF4FF43B
:101ED00000716548FEF765FF53E04FF400716448F8
:101EE000FEF75DFF4FF480715F48FEF75AFF4FF435
:101EF00080615D48FEF755FF4FF400715A48FEF7C8
:101F00004EFF3EE04FF400715948FEF748FF4FF492
:101F100080715548FEF745FF4FF480615248FEF747
:101F20003EFF4FF400715048FEF73BFF29E04FF4AD
:101F300000714F48FEF735FF4FF480714A48FEF7B5
:101F40002EFF4FF480614848FEF729FF4FF40071DF
:101F50004548FEF726FF14E04FF400714448FEF7B1
:101F600020FF4FF480714048FEF719FF4FF4806165
:101F70003D48FEF716FF4FF400713B48FEF70FFF98
:101F800000BF00BF10BD2DE9F04105460E461746C3
:101F9000394804786FEA070000F0FF0808F00108EC
:101FA0004FF0000185EA010086EA0101084332D0C2
:101FB00080212E48FEF7F3FE4FF400612A48FEF719
:101FC000EEFE18E02046FFF766FF012C06DB042C2E
:101FD00004DC7800C0F101002044C4B2012C01DB14
:101FE000042C05DD4FEAC800C0F104002044C4B24F
:101FF0006D1E66F10006002185EA0100714008436C
:10200000E0D180211948FEF7CCFE4FF4006116485C
:10201000FEF7C7FE02E00120BDE8F081164804701B
:102020000020F9E72DE9F04106460F46002400257F
:102030004FF0180840210D48FEF7B1FE08E036F8D1
:102040001400FFF711FE601CC4B20A20FFF704FE63
:10205000BC4201DA4445F2DB18E0000000300140E8
:10206000001801400024014000140140001001400C
:10207000000C0140000001402C0000200020FFF770
:10208000F3FD601CC4B20A20FFF7E6FD4445F5DB12
:102090004FF480714448FEF784FE1E20FFF7DCFDFC
:1020A0004FF480714048FEF77AFE3220FFF7D4FDEE
:1020B00014E03E4830F815103B48FEF770FE4FF430
:1020C000FA50FFF7C9FD394830F815103648FEF7C9
:1020D00068FE5020FFF7C0FD681CC5B2062DE8DB86
:1020E000012210460021FFF74EFF40213048FEF745
:1020F00058FEBDE8F0812DE9F047044600202D4947
:10210000088001212C48FFF728F900BF02212A4846
:10211000FFF794FA0028F9D12748FFF7B1F92549CC
:102120000880084600884FF4805191FBF0F0451E6E
:10213000284601F09BF981464946204801F0D4F831
:1021400081461F49484601F0CFF88246504601F0CB
:102150009FF8074600F056FA054600F00BFC824651
:102160005146002001F09AF98246504601F090F85D
:102170000546144A144B00F02FFC074600F0FAFB0A
:102180008246012C02D15046BDE8F087504601F04E
:102190007FF805464FF066320C4B00F08FFF074684
:1021A00000F0E8FBF0E70000001801402E000020DE
:1021B000001001403A0000200024014000401C466D
:1021C0000060EA4683DBB5DCE1796B3F6612714063
:1021D00010B5024600BFA1F14100C0EBC00404EB02
:1021E000001083B29818284C34F8100010BD2DE967
:1021F000F0478CB00646002700250024A146A246E1
:10220000A046304600F0C6F81FFA80F9A9F1010097
:10221000182190FBF1F0401C1FFA80FA2EE023E019
:1022200005EB4500C400A0460EE0305D202803D138
:1022300000202DF8140005E0315D3846FFF7C8FF97
:102240002DF81400601C84B24C4505DA681C00EBC4
:102250004000C000A042E8DCA4EB0800C1B2684620
:10226000FFF7E0FE781CC7B2182FD9DB0027681CE7
:10227000C5B2012232200021FFF785FE5545CEDB95
:102280000CB0BDE8F08700003C0000200FB41CB586
:10229000074B06AA7B4469460090059800F009F9AF
:1022A0000020694600F018F91CBC5DF814FB000022
:1022B000410200002DE9F0410E4604460020206254
:1022C0002046E168884730B3252805D0D4E90121AC
:1022D0009047206A401CF2E7E168204600278847C3
:1022E000050018D0A5F14100192802D820354FF477
:1022F00000673246294620462760FDF787FF40B138
:10230000012804D0F61D26F007060836D8E7361D4A
:10231000D6E72846DAE7206ABDE8F0812DE9F041EA
:102320000646002410687529314616A511D0AFF372
:102330000080002803DAC0F1000013A507E031682F
:102340008A0701D511A502E0490704D510A501248B
:1023500001E0AFF3008000210A2306F1240707E023
:10236000B0FBF3F203FB1200303078541046491CE6
:102370000028F5D123462A463046BDE8F04100F05A
:1023800036B80000000000002D0000002B00000007
:102390002000000010B5431C02E010F8011B71B1D1
:1023A0008107FAD14FF0013202C88C1A8C4314EA2B
:1023B000C211F9D0C01A0A0603D0C01E10BDC01A3F
:1023C00010BD0A0401D0801E10BD0902FCD0401EC1
:1023D00010BD70477047704710B500F083F8006873
:1023E00010BD10B5044600F07DF8046010BD2DE965
:1023F000F0470D4699469246044600F124080168CC
:10240000880604D5E06921F01001216000E0012078
:10241000A84202DDA0EB050700E00027A16907EB59
:10242000050202EB0900A1EB0000A0612078C006C4
:1024300002D42046AFF30080002608E0D4E9012151
:102440001AF806009047206A401C761C20624E4510
:10245000F4DB2078C0060AD52046AFF3008006E002
:10246000D4E9012130209047206A401C2062381EA8
:10247000A7F10107F4DC07E0D4E9012118F8050011
:102480009047206A401C2062281EA5F10105F3DC5C
:102490002046AFF300802078000602D50220BDE878
:1024A000F0870120FBE7000001694A1C02610878FF
:1024B000704700B58FB0CDE9013100210591054984
:1024C0007944CDE9031011466846FFF7F3FE0FB0DB
:1024D00000BD0000E5FFFFFF0A6802F8010B0A607B
:1024E00070470000004870476406002000487047AD
:1024F000640600207546FFF7F9FFAE460500694601
:10250000534620F00700854618B020B5FDF7A4FE1D
:10251000BDE820404FF000064FF000074FF00008E4
:102520004FF0000B21F00701AC46ACE8C009ACE865
:10253000C009ACE8C009ACE8C0098D467047044644
:10254000AFF300802046FDF773FE0000014918201C
:10255000ABBEFEE72600020070472DE9F0414F1E9A
:1025600000EBC7010446D1E9000115461E4637F0CD
:1025700006020DD02A46334600F096FC7F1E04EB7F
:10258000C703D3E9002300F027FA37F00602F1D1A0
:10259000022F25D0042F13D0062F18BFBDE8F081DD
:1025A0002A46334600F080FCD4E90A2300F014FAEE
:1025B0002A46334600F078FCD4E9082300F00CFAF0
:1025C0002A46334600F070FCD4E9062300F004FAF2
:1025D0002A46334600F068FCD4E9042300F0FCF9F5
:1025E0002A46334600F060FCD4E9022300F0F4F9F7
:1025F0002A46334600F058FCD4E90023BDE8F041F8
:1026000000F0EAB92DE9F04DCC4A002490B0914297
:1026100005DA21F00043934201D807D130B110B060
:102620004FF00102BDE8F04D01F036B8B1F5801F62
:1026300021DA53EA00020DD0002917DA0120FFF752
:10264000D0FE10B00022BDE8F04D134610461146F2
:1026500000F07EBA0220FFF7C4FE10B00022BDE8F1
:10266000F04D13461046B64900F072BA6FF03504CB
:10267000362201F011F804EB2152C1F31308B149DD
:10268000A2F2FF33414401F4801282F07F6103EB38
:10269000225281F04051009241EA08010022AA4BE7
:1026A00000F00CFD044608F10200A84EC0F3130030
:1026B0000D467E44032867D2D6E90023204600F069
:1026C0009FFB1ED10098002802BFD6E9000110B080
:1026D000BDE8F08D00F0D0FB04460D469C4A9D4BB2
:1026E00000F0E2FB07460E469B4A9C4B20462946DB
:1026F00000F0DAFB10B03A463346BDE8F04D00F08A
:102700006BB94FF05532964B2046294600F0CCFB72
:102710000022944B00F0C6FC07460E4622462B468C
:102720001046194600F0C0FB3A46334600F0BCFBA9
:10273000064600980F46F0B100F09EFB80468A46A0
:10274000834A844B00F0B0FB32463B4600F0AAFCC3
:1027500022462B4600F0B2FC05460C467E4A7F4BD3
:102760004046514600F0A0FB10B02A462346BDE883
:10277000F04D00F0A3BC0B4610B03246204629466F
:10278000BDE8F04D00F09ABC00224FF08043204697
:1027900000F022F902460B462046294600F0D8F9FF
:1027A00006460F46009800F067FBCDE9040132466B
:1027B0003B461046194600F077FB0C906A48099199
:1027C00008EB000201920C9A0B46104600F06CFBDD
:1027D0008246024665488B46C8F151080B4608F50B
:1027E000D72803217844FFF7B8FE52465B4600F035
:1027F0005BFB0A905E480D9152465B46042178448B
:10280000FFF7ABFE099B0C9A00F04EFB019A0D9B63
:1028100042EA08080A9A00F0DFF883460891B8F106
:10282000000F4EDD4FF0FF322046294600F034FF06
:1028300022462B4600F038FB804600988A4660B35B
:10284000DDE90401424A434B00F02EFB0991009060
:102850005A4640465146089B00F0BEF832463B4679
:1028600000F022FB099B009A00F0B6F8424653465E
:1028700000F018FC22462B4600F020FC04460D46D2
:10288000DDE90401344A354B00F00EFB10B022465E
:102890002B46BDE8F04D00F011BC5A464046089B5F
:1028A00000F09AF832463B4600F0FEFA42465346A4
:1028B00000F0F8FB10B022462B46BDE8F04D00F0CA
:1028C000F1BB009840B3DDE90401214A214B00F03F
:1028D000EBFA824688465A4620462946089B00F075
:1028E000EDFB32463B4600F0DFFA5246434600F02D
:1028F000E5FB22462B4600F0E1FB04460D46DDE9F0
:102900000401154A154B00F0CFFA10B022462B46B1
:10291000BDE8F04D00F0D2BB0B465A462046294692
:1029200000F0CCFB32463B4600F0BEFA10B0224627
:102930002B46BDE8F04D00F0B5BB00000000F07F75
:102940000000F0BF645F09000000F03FAA10000023
:10295000763C7935EF39EA3D0000E0FE422EE63F55
:102960005555D53F0000E03F86EBF9FF400F0000D2
:102970003E0F000021F00042A2F16052B2F5801F2C
:1029800001F0004328BFD2F17F6C0BD95FEA001C35
:1029900043EAC20242EB507018BF704728BF20F0D4
:1029A00001007047B2F5801FBCBF184670474FEA60
:1029B000410C1CF5001F02D2084600F036BE70B56F
:1029C00000F01CFB00000089FFF7F6BF4FF000404D
:1029D000A0F580007047000010B591EA030F48BFD2
:1029E00083F0004300F17283841A71EB030C05D26B
:1029F000121943EB0C03001B61EB0C01DFF824E11F
:102A00004FEA1154A4EB135C1EEA430F18BF9EEA71
:102A1000445F73D023EA0E03DCF1200E21EA045157
:102A200043F4801332D322FA0CFE10EB0E0023FA8B
:102A30000CFE41EB0E01CCF1200E03FA0EFE10EB62
:102A40000E0051F10001B1F5801FCCF1200E32D201
:102A500001EB045112FA0EF2BDE8104058BF704766
:102A6000401C38BF5FEA420218BF7047002814BFFD
:102A700020F0010041F100014FEA410313F5001F6E
:102A800038BF7047A1F1C04100F006BB012A43EBFB
:102A90000302ACF1200CDCF11F0E32BF4FF0000E30
:102AA00023FA0CF310EB030041EB0451B4EB115F7C
:102AB000D0D0A1EB045101F5801149085FEA300044
:102AC00001EB04510ED350F1000038BF12FA0EFE94
:102AD00008D1BDE81040C9E7401C38BF5FEA420298
:102AE000CAD1C3E7BDE810404FEA410313F5001F08
:102AF00038BF7047A1F1C04100F0CEBA9EEA445FF2
:102B000008D011EA5E0FBDE8104004BF01F000419B
:102B100000207047BDE8104070B500F06FFA00BFAC
:102B200064FBBE3E0000E0FF02494FF0000000F0F1
:102B300081BD00BF0000F87F491058BFC1F140417E
:102B40005B1058BFC3F140438B42EFF300807047E6
:102B50002DE9C04130B4DFF8A0C23CEA111418BF1F
:102B60003CEA131400F0EC8081EA03051CEA11141E
:102B700044EAD57418BF1CEA131500F0C780A4EB13
:102B800005044FF0004545EAC12145EAC32341EA67
:102B9000505143EA525304F17F74994204F50034D2
:102BA0004FEAC0204FEAC22208BF904200F09C804A
:102BB0004FEA13650FF24016765D4FEA134506FBA8
:102BC00005F7C7F1807706FB07F74FEAD737A7FB72
:102BD00003687642C8F58038A7FB06CE38BFA8F157
:102BE000010807FB08E64FF0000EA6FB028CE6FB8F
:102BF00003CEDCF1000CCEF1004E38BFAEF1010E79
:102C0000A6FB0C584FF000074FF00005E6FB0E87BF
:102C1000A1FB08C6A0FB07CE16EB0E0645F100058A
:102C2000E1FB076515F1E04E7EBFA4F580345FEA55
:102C300046066D4116F1800745F100054FEA17275A
:102C40004FEA066647EA0567A6F1DE46B6F1805F01
:102C50004FEA15251FD9384624F0010C05EBC47145
:102C6000BCF1FE6F01EB0C1102D8F0BCBDE8008195
:102C700024425CBF01F5801E9EEAC47F02D4F0BCF2
:102C8000BDE80081244238D4F0BCA1F1C041BDE8C8
:102C9000004100F001BA4FEAD22242EA43524FEA21
:102CA000D323A7FB02864FEAD02040EA415007FB1E
:102CB00003661EEA0E0F4FEAD12105FB026658BFDC
:102CC000A6EB0056B6EB00564FEA520E4EEAC37E14
:102CD00018EB0E0E56EB530EBDD518EB02085E41F5
:102CE0007F1C55F10005B6E74FF480154FF0000743
:102CF0004FF000064FF00008ADE7F0BC4FF00000C9
:102D000001F1C04101F00041BDE8008111EA0C1F52
:102D10000CEA131500D00CE013EA0C1F00F025801C
:102D20004FF00000F0BC81EA030101F00041BDE872
:102D30000081F0BCBDE8004181EA030100F0ACB9BC
:102D4000F0BCBDE8004170B500F058F9097EFC3ECA
:102D500000F007B881EA03014FF0000001F00041E4
:102D6000704781EA030100F097B9F0BCBDE800416B
:102D70004FF0000021497047FFFDFBF9F7F5F4F231
:102D8000F0EEEDEBE9E8E6E4E3E1E0DEDDDBDAD806
:102D9000D7D5D4D3D1D0CFCDCCCBCAC8C7C6C5C464
:102DA000C2C1C0BFBEBDBCBBBAB9B8B7B6B5B4B37B
:102DB000B2B1B0AFAEADACABAAA9A8A8A7A6A5A466
:102DC000A3A3A2A1A09F9F9E9D9C9C9B9A9999982A
:102DD0009797969595949393929191908F8F8E8ECD
:102DE0008D8C8C8B8B8A898988888787868585845A
:102DF00084838382828181800000FF070000F87F46
:102E000051EA030C17D41CF5801F58BFBCF5801F76
:102E100000F10680994218BF704708BF9042704782
:102E200007D711F5801F58BF13F5801F19D4994299
:102E30007047894270471CF5801F08D5BCF5801F7C
:102E4000F7D58B4218BF704708BF824270474FF4D6
:102E5000001C1CEB410F38BF1CEB430F01D28B420F
:102E6000704770B500F0CAF8922449004FF0005145
:102E70004FF08053FFF760BE10F0004248BF404261
:102E8000B0FA80F310FA03F10AD0C3F11D0303F581
:102E900080634FEA415002EB035202EBD1217047AD
:102EA0004FF0000070470000DFF848C170B51CEA21
:102EB000111E1EBF1CEA13159EEA0C0F95EA0C0F9B
:102EC00000F06F8081EA030423EA4C134EEAD47EBB
:102ED00021EA4C1141F4801143F48013AE44A1FB6C
:102EE000024CA0FB0365AEF17F7E361955EB0C0555
:102EF000A1FB034C4CF10003A0FB021C16EB0C06DB
:102F0000654153F10003094218BF46F0010613F46E
:102F1000007F0BD14FEA03314FEA0530340341EA19
:102F2000155140EA16506FF003020AE04FEAC32140
:102F30004FEAC520F40241EA555140EA56506FF07D
:102F4000020202EB2E4201EB025585EACE710AD055
:102F50005FEA440C18BF24F0004450F1000041F136
:102F6000000120EAD47040F2FE7C624500D270BDC0
:102F7000A84214BF4FF080444FF04044002E08BFD9
:102F80000024BEF1806FA8BFA1F1C041BDE8704030
:102F900080F282804FF0000001F1C04101F0004159
:102FA00070479EEA0C0F0CEA131518BF95EA0C0F38
:102FB00006D04FF0000081EA030E0EF0004170BD14
:102FC00000F01CF88900013E00F007B800F009B8D5
:102FD0004FEA430C5FEA5C5C08D081EA030100F031
:102FE0005BB84FEA410C5FEA5C5CF6D14FF0000041
:102FF000014970470000FF070000F87F0EF1020E44
:103000002EF0030E5EF8046B364205D4012A43EB22
:10301000030515F5001F12D8012841EB010C1CF522
:10302000001F0CD80ED14FEAD17C15F5001F0CEB18
:103030004C0C0CF1020C08BF4CEBD37C04E04FF0BD
:10304000080C01E04FEAD37C0CEB4C0526FA05F6A0
:1030500006F00706B6F1040C06D20EEB860CBDE8AE
:1030600070404CF0010C6047DFE80CF0090B0202E5
:103070004FF000414FF00000A1F5002170BD19464E
:103080001046012851EB010418BFD4F5001484BF89
:10309000002001F0004170BD0808A0F500114FEAC2
:1030A0003101704791EA030F10B581F000413FF5FF
:1030B0009BAC83F0004300F009B8000010B591EA22
:1030C000030F48BF83F000433FF58EAC841A71EBC9
:1030D000030C07D212198CF0004C43EB0C03001BBD
:1030E00061EB0C01DFF8A4E14FEA1154A4EB135C8F
:1030F0001EEA430F18BF9EEA445F00F0B08023EA47
:103100006E03524221EA0451C3EB6E0338BF5B1ECB
:10311000DCF1200E25D322FA0CFE10EB0E0043FA50
:103120000CFE41EB0E01CCF1200E03FA0EFE10EB6B
:103130000E0051F10001CCF1200E29D412FA0EF24A
:1031400001EB0451BDE8104058BF7047401C1CBF44
:10315000B2F1004F704700280CBF491C20F001005D
:10316000704712EB020E43EB030218BF4FF0010E43
:103170004EEA4202ACF1200CDCF11E0E54D943FAA7
:103180000CFE10EB0E0051F1FF31CCF11E0ED5D527
:103190000EF1010E12FA0EFE404141EB010101EB6E
:1031A000445C5FEA5C5C10D910EBDE7001EB04510B
:1031B00038BFBEF1004FBDE8104018BF704700286F
:1031C0000CBF491C20F00100704730D24FEAD42CCC
:1031D00011F5001124F400641BD0B1FA81F20B3A0E
:1031E000A41AA41ED2F12003914030FA03F319432C
:1031F000904001EBCC71002C01EB0451BDE8104074
:10320000A8BF704701F1C0414FF0000001F000413C
:103210007047B0FA80F310FA03F100D110BDE41A40
:10322000173C4805C90AE4E701EB045110BD4910F9
:1032300001EB0451BDE810404FEA300002E04FF0CE
:10324000000170474A0008BF0042F8D0B2F5001FE5
:1032500028BF704701F000414FF0000070479EEA20
:10326000445F07D011EA5E0FBDE8104004BF0021A3
:1032700000207047BDE8104070B5FFF7BFFE00BFEB
:1032800040DFF63E83F00041104670470000E0FF4B
:1032900043004FEAD30C4FEA3C0C43401FBF4007AA
:1032A0000CF1605113F0FE4F70471CF0006F03D11A
:1032B00000200CF0004170470CF0004343EA5070CE
:1032C00010B540EACC0000F06AF900BF000000929F
:1032D0004FEA0001FFF7E0BE4FF000414FF0000061
:1032E000A1F50021704700004FF47F0C1CEAD012BA
:1032F0001EBF1CEAD11392EA0C0F93EA0C0F00F0E8
:10330000858090EA010F48BF42F4807240F4000CBF
:1033100041F400002CF07F4120F07F4000B5814255
:10332000A2EB03020FF2081CACEB504EC0F1000000
:103330009EF800E04FEA4E0E00FB0EFC38BF49003D
:103340004FEA2C1C02F5FA020CFB0EF34FEACE1EDC
:103350004FEA112C4FEAC1210EEB635E42EB224291
:103360000EFB0CFC4FEA1C5300FB03114FEA112C1F
:103370004FEA01310EFB0CFC4FEADC4C00FB0C1158
:10338000C14228BF09184CEB03335DF804EB10EB86
:10339000410143EBC250B2F57C0F38BF704729D5CD
:1033A00012F0F00F1CBF00F1C04000F00040704769
:1033B000008182838485868788898B8C8D8E8F910E
:1033C0009293959697999A9C9D9FA0A2A3A5A7A832
:1033D000AAACAEB0B2B3B5B7B9BCBEC0C2C5C7C95E
:1033E000CCCED1D4D7D9DCDFE2E6E9ECF0F3F7FAC2
:1033F000FE0000004FEA400C0CF1807CBCF17E4FD7
:1034000028BF7047B0F1C04000F00FB990EA010F3B
:103410000CEAD11348BF42F48072624538BF63455D
:1034200007D213F47F0F16D080EA010000F00040AD
:10343000704710B500F0B3F8097EFC3E00F005B807
:1034400080EA010000F00040704780EA010000F0CF
:10345000004000F0EAB812F47F0F04BF0248704742
:1034600080EA010000F0E1B80000C07F10F00041E8
:1034700048BF4042B0FA80F310FA03F2C3F19D0353
:103480000BD051EAC35101EB1220530638BF7047ED
:1034900000F1010008BF20F0010070474FF47F0CDD
:1034A0001CEAD0121EBF1CEAD11392EA0C0F93EA59
:1034B0000C0F00F0478090EA010F48BF42F4807281
:1034C0004FF0004C4CEA00204CEA012102EB0302D1
:1034D000A0FB0113A2F50002002918BF43F001036D
:1034E0005B0028BF4FEA330342EB22425FEA132C12
:1034F0004CEBC2502EBFBCEB436FB2F57C0F704754
:103500004FEA036CBCF1004F08BF20F00100B2F598
:103510007C0F38BF70470BD582F0FF0212F5803F59
:10352000C8BF704700F1C040D8BF00F000407047EE
:1035300000F5000C5FEA4C0C48BF7047B0F1C0408A
:1035400000F073B890EA010F0CEAD11348BF42F4BF
:103550008072624538BF634504D280EA010000F002
:103560000040704710B500F01AF800BF8900013E16
:1035700000F007B800F009B85FEA410C5FEA1C6C84
:1035800008D080EA010000F050B85FEA400C5FEA22
:103590001C6CF6D14FF00040A0F5800070470EF192
:1035A000020E2EF0030E5EF8044B244204D44FEAC0
:1035B0004102B2F17F4F11D84FEA4003B3F17F4F80
:1035C0000CD80ED14FEAD07CB2F17F4F0CEB4C0CF3
:1035D0000CF1020C08BF4CEBD17C04E04FF0080C5E
:1035E00001E04FEAD17C0CEB4C0324FA03F404F025
:1035F0000704B4F1040C06D20EEB840CBDE81040B5
:103600004CF0010C6047DFE80CF0070802024FF0B5
:103610000040A0F5800010BD0846420018BFD2F15E
:10362000807288BF00F0004010BDFF2141EAD050F9
:10363000C00570470CF00F03092B08BF082000F0ED
:1036400059800A2B0BD0082B18BF704708BF1CF0FD
:10365000400F0AD04FF000004FF0000170471CF0FF
:10366000400F18BF4FF0004070471CF0100F08D0FB
:1036700020F0704300F07F4242EAD3014FEA4370EA
:10368000704700F0604021F07F4242EA000201F002
:103690007F4040EA727070474FF0FF0C4CF4E06CD2
:1036A0001CEA11531CBF9CEA030C9445C2BFDA42CA
:1036B00001EB02517047002B0DD0BCF1000F0FD071
:1036C000002A01F00041A4BF41F0E04141F07F61D8
:1036D0004FF00000704701F000414FF000007047CC
:1036E00050EA01334FF09B0C18BF4CF0806C7FF414
:1036F0001BAA70471CF4801F11D01CF4E02F03D0CC
:103700006FEACC31490070474FF04050EFF3008230
:1037100022F0704242EA000282F3008870474FF0C4
:10372000000070470000000004FA97999999D93F6A
:10373000AF788E1DC571CC3F9FC678D0099AC33F24
:10374000935555555555E53F599322942449D23FF9
:10375000DE03CB966446C73F44523EDF12F1C23FC0
:103760000000000000000000883700080000002072
:103770001C0500008C010008803900081C05002091
:10378000AC070000F001000812000120050102034F
:103790000404500E060708090204060800A24A04A1
:1037A000000161183128200E0000040008001000FC
:1037B00020004000801E8009F81FFC3FFE7F0E7035
:1037C0000223FE7F02A1126102112E137FFC02E18F
:1037D0001CB004FC7FF81612FE264005F87F00009E
:1037E0004A0005190078007002527826115C210207
:1037F000100438701C02320C72520602217E320C08
:103800001843387026715C914A511AB15E615C01AF
:10381000242E510201112E6136327E02C1E60512BC
:103820002A0516446514000518FE7FC003026124B2
:10383000300400007E02D20E02238E7F0255B0407B
:103840000A781E7CFE3FFC1FF80F8A30111E703E66
:10385000707870F070E071C0738077007F4310095A
:103860007F8077C073E071F01A123E2245CC051BB1
:1038700096F542115A000C12783E7C7E7EEE77CE91
:10388000738E71F4A928619C130E7C0210077E0EC2
:10389000760E730E3614088E71CE70EE706E442163
:1038A000867A1E562BF00F86011C54396610043F91
:1038B000F01F2ED96E41763A0C86E6F0D201175CE5
:1038C000118C100571EE71EE8C140438703CCC0034
:1038D0000516EE3FE61F8A615C10088073C071E038
:1038E000707032921CB8D4041C780C3412E0A820FA
:1038F00005F80F0C000250041C60F8B80522FA61AC
:1039000002091456E1C4671E78140007161E781EBB
:10391000781C38024107000720700EF00FF00F5C92
:10392000151A640A73EE777E7E3E7C1E78CC1218E0
:103930000120091008300C300C6006A2200560063A
:1039400060060E211811151119A5FA20090C30086E
:10395000101818381C2E2130031080010241E63D5A
:10396000260339D41C041C00380D042007E000C0D5
:1039700001FC3F027300071579840130010000004B
:04000005080001519D
:00000001FF
